{
  "_format": "hh-sol-artifact-1",
  "contractName": "Reputation",
  "sourceName": "contracts/Reputation.sol",
  "abi": [
    {
      "anonymous": false,
      "inputs": [
        {
          "indexed": true,
          "internalType": "address",
          "name": "worker",
          "type": "address"
        },
        {
          "indexed": false,
          "internalType": "string",
          "name": "platform",
          "type": "string"
        },
        {
          "indexed": false,
          "internalType": "uint8",
          "name": "rating",
          "type": "uint8"
        },
        {
          "indexed": false,
          "internalType": "string",
          "name": "jobType",
          "type": "string"
        }
      ],
      "name": "JobAdded",
      "type": "event"
    },
    {
      "anonymous": false,
      "inputs": [
        {
          "indexed": true,
          "internalType": "address",
          "name": "worker",
          "type": "address"
        },
        {
          "indexed": false,
          "internalType": "uint256",
          "name": "newScore",
          "type": "uint256"
        },
        {
          "indexed": false,
          "internalType": "uint256",
          "name": "jobCount",
          "type": "uint256"
        }
      ],
      "name": "ScoreUpdated",
      "type": "event"
    },
    {
      "anonymous": false,
      "inputs": [
        {
          "indexed": true,
          "internalType": "address",
          "name": "worker",
          "type": "address"
        }
      ],
      "name": "WorkerRegistered",
      "type": "event"
    },
    {
      "inputs": [
        {
          "internalType": "string",
          "name": "platformName",
          "type": "string"
        },
        {
          "internalType": "uint8",
          "name": "rating",
          "type": "uint8"
        },
        {
          "internalType": "string",
          "name": "jobType",
          "type": "string"
        }
      ],
      "name": "addJob",
      "outputs": [],
      "stateMutability": "nonpayable",
      "type": "function"
    },
    {
      "inputs": [
        {
          "internalType": "address",
          "name": "worker",
          "type": "address"
        },
        {
          "internalType": "uint256",
          "name": "jobIndex",
          "type": "uint256"
        }
      ],
      "name": "getJob",
      "outputs": [
        {
          "internalType": "string",
          "name": "platformName",
          "type": "string"
        },
        {
          "internalType": "uint8",
          "name": "rating",
          "type": "uint8"
        },
        {
          "internalType": "uint256",
          "name": "timestamp",
          "type": "uint256"
        },
        {
          "internalType": "string",
          "name": "jobType",
          "type": "string"
        }
      ],
      "stateMutability": "view",
      "type": "function"
    },
    {
      "inputs": [
        {
          "internalType": "address",
          "name": "worker",
          "type": "address"
        }
      ],
      "name": "getScore",
      "outputs": [
        {
          "internalType": "uint256",
          "name": "averageScore",
          "type": "uint256"
        },
        {
          "internalType": "uint256",
          "name": "jobCount",
          "type": "uint256"
        }
      ],
      "stateMutability": "view",
      "type": "function"
    },
    {
      "inputs": [
        {
          "internalType": "uint256",
          "name": "index",
          "type": "uint256"
        }
      ],
      "name": "getWorkerAddress",
      "outputs": [
        {
          "internalType": "address",
          "name": "",
          "type": "address"
        }
      ],
      "stateMutability": "view",
      "type": "function"
    },
    {
      "inputs": [],
      "name": "getWorkerCount",
      "outputs": [
        {
          "internalType": "uint256",
          "name": "",
          "type": "uint256"
        }
      ],
      "stateMutability": "view",
      "type": "function"
    },
    {
      "inputs": [
        {
          "internalType": "address",
          "name": "worker",
          "type": "address"
        }
      ],
      "name": "getWorkerJobCount",
      "outputs": [
        {
          "internalType": "uint256",
          "name": "",
          "type": "uint256"
        }
      ],
      "stateMutability": "view",
      "type": "function"
    },
    {
      "inputs": [
        {
          "internalType": "address",
          "name": "worker",
          "type": "address"
        }
      ],
      "name": "isWorkerRegistered",
      "outputs": [
        {
          "internalType": "bool",
          "name": "",
          "type": "bool"
        }
      ],
      "stateMutability": "view",
      "type": "function"
    },
    {
      "inputs": [],
      "name": "registerWorker",
      "outputs": [],
      "stateMutability": "nonpayable",
      "type": "function"
    },
    {
      "inputs": [
        {
          "internalType": "uint256",
          "name": "",
          "type": "uint256"
        }
      ],
      "name": "workerAddresses",
      "outputs": [
        {
          "internalType": "address",
          "name": "",
          "type": "address"
        }
      ],
      "stateMutability": "view",
      "type": "function"
    },
    {
      "inputs": [
        {
          "internalType": "address",
          "name": "",
          "type": "address"
        }
      ],
      "name": "workers",
      "outputs": [
        {
          "internalType": "bool",
          "name": "isRegistered",
          "type": "bool"
        },
        {
          "internalType": "uint256",
          "name": "totalScore",
          "type": "uint256"
        },
        {
          "internalType": "uint256",
          "name": "jobCount",
          "type": "uint256"
        }
      ],
      "stateMutability": "view",
      "type": "function"
    }
  ],
  "bytecode": "0x608060405234801561001057600080fd5b506110c9806100206000396000f3fe608060405234801561001057600080fd5b506004361061009e5760003560e01c80634d7599f1116100665780634d7599f114610161578063772199a114610169578063900b7b621461018c578063d47875d01461019f578063e798a7da146101c757600080fd5b80630a318da0146100a3578063208082bf146100d357806330371369146100dd5780634048a257146100f05780634095910414610140575b600080fd5b6100b66100b1366004610b94565b610203565b6040516001600160a01b0390911681526020015b60405180910390f35b6100db61022d565b005b6100db6100eb366004610c50565b610320565b6101236100fe366004610cea565b60006020819052908152604090208054600182015460029092015460ff909116919083565b6040805193151584526020840192909252908201526060016100ca565b61015361014e366004610cea565b6106c6565b6040519081526020016100ca565b600154610153565b61017c610177366004610d0c565b61071d565b6040516100ca9493929190610d86565b6100b661019a366004610b94565b610975565b6101b26101ad366004610cea565b6109ed565b604080519283526020830191909152016100ca565b6101f36101d5366004610cea565b6001600160a01b031660009081526020819052604090205460ff1690565b60405190151581526020016100ca565b6001818154811061021357600080fd5b6000918252602090912001546001600160a01b0316905081565b3360009081526020819052604090205460ff16156102925760405162461bcd60e51b815260206004820152601960248201527f576f726b657220616c726561647920726567697374657265640000000000000060448201526064015b60405180910390fd5b33600081815260208190526040808220805460ff1916600190811782558181018490556002909101839055805480820182559083527fb10e2d527612073b26eecdfd717e6a320cf44b4afac2b0732d9fcbe2b7fa0cf60180546001600160a01b03191684179055517f39e7e6ae07d889bdbff877aba3aa77fb0f33f79807df2c91a0ac6059849e3e0e9190a2565b3360008181526020819052604090205460ff1661034f5760405162461bcd60e51b815260040161028990610dc5565b8260018160ff1610158015610368575060058160ff1611155b6103b45760405162461bcd60e51b815260206004820152601e60248201527f526174696e67206d757374206265206265747765656e203120616e64203500006044820152606401610289565b60008551116104055760405162461bcd60e51b815260206004820152601d60248201527f506c6174666f726d206e616d652063616e6e6f7420626520656d7074790000006044820152606401610289565b60008351116104565760405162461bcd60e51b815260206004820152601860248201527f4a6f6220747970652063616e6e6f7420626520656d70747900000000000000006044820152606401610289565b336000908152602081905260408120600281015490918761047642610a8b565b604051602001610487929190610df4565b604051602081830303815290604052905082600401816040516104aa9190610e30565b9081526040519081900360200190205460ff16156105205760405162461bcd60e51b815260206004820152602d60248201527f4a6f6220616c72656164792065786973747320666f72207468697320706c617460448201526c666f726d20616e642074696d6560981b6064820152608401610289565b6040805160a08101825289815260ff891660208083019190915242828401526060820189905260016080830152600085815260038701909152919091208151819061056b9082610ed5565b50602082015160018201805460ff191660ff90921691909117905560408201516002820155606082015160038201906105a49082610ed5565b50608091909101516004918201805460ff19169115159190911790556040516001918501906105d4908490610e30565b908152602001604051809103902060006101000a81548160ff0219169083151502179055508660ff168360010160008282546106109190610fab565b909155505060028301805490600061062783610fc4565b9190505550336001600160a01b03167f293c1d8e9770b9a26ad46154dd830666f55da72613d13e964473cf87283b991689898960405161066993929190610fdd565b60405180910390a26001830154600284015460405133927f91878448ef87c3db4aeb83e60e7deb1240ecae3fd04975ec93547398514cb4ed926106b492918252602082015260400190565b60405180910390a25050505050505050565b6001600160a01b03811660009081526020819052604081205460ff166106fe5760405162461bcd60e51b815260040161028990610dc5565b506001600160a01b031660009081526020819052604090206002015490565b6001600160a01b038216600090815260208190526040812054606091908190839060ff1661075d5760405162461bcd60e51b815260040161028990610dc5565b6001600160a01b03861660009081526020819052604090206002015485106107c75760405162461bcd60e51b815260206004820152601760248201527f4a6f6220696e646578206f7574206f6620626f756e64730000000000000000006044820152606401610289565b6001600160a01b0386166000908152602081815260408083208884526003019091529020600481015460ff166108345760405162461bcd60e51b8152602060048201526012602482015271129bd888191bd95cc81b9bdd08195e1a5cdd60721b6044820152606401610289565b600181015460028201548254839260ff1691906003840190849061085790610e4c565b80601f016020809104026020016040519081016040528092919081815260200182805461088390610e4c565b80156108d05780601f106108a5576101008083540402835291602001916108d0565b820191906000526020600020905b8154815290600101906020018083116108b357829003601f168201915b505050505093508080546108e390610e4c565b80601f016020809104026020016040519081016040528092919081815260200182805461090f90610e4c565b801561095c5780601f106109315761010080835404028352916020019161095c565b820191906000526020600020905b81548152906001019060200180831161093f57829003601f168201915b5050505050905094509450945094505092959194509250565b60015460009082106109bf5760405162461bcd60e51b8152602060048201526013602482015272496e646578206f7574206f6620626f756e647360681b6044820152606401610289565b600182815481106109d2576109d2611015565b6000918252602090912001546001600160a01b031692915050565b6001600160a01b038116600090815260208190526040812054819060ff16610a275760405162461bcd60e51b815260040161028990610dc5565b6001600160a01b03831660009081526020819052604081206002810154909103610a575750600093849350915050565b6000816002015482600101546064610a6f919061102b565b610a799190611058565b60029092015491959194509092505050565b606081600003610ab25750506040805180820190915260018152600360fc1b602082015290565b8160005b8115610adc5780610ac681610fc4565b9150610ad59050600a83611058565b9150610ab6565b60008167ffffffffffffffff811115610af757610af7610bad565b6040519080825280601f01601f191660200182016040528015610b21576020820181803683370190505b5090505b8415610b8c57610b3660018361106c565b9150610b43600a8661107f565b610b4e906030610fab565b60f81b818381518110610b6357610b63611015565b60200101906001600160f81b031916908160001a905350610b85600a86611058565b9450610b25565b949350505050565b600060208284031215610ba657600080fd5b5035919050565b634e487b7160e01b600052604160045260246000fd5b600082601f830112610bd457600080fd5b813567ffffffffffffffff80821115610bef57610bef610bad565b604051601f8301601f19908116603f01168101908282118183101715610c1757610c17610bad565b81604052838152866020858801011115610c3057600080fd5b836020870160208301376000602085830101528094505050505092915050565b600080600060608486031215610c6557600080fd5b833567ffffffffffffffff80821115610c7d57600080fd5b610c8987838801610bc3565b94506020860135915060ff82168214610ca157600080fd5b90925060408501359080821115610cb757600080fd5b50610cc486828701610bc3565b9150509250925092565b80356001600160a01b0381168114610ce557600080fd5b919050565b600060208284031215610cfc57600080fd5b610d0582610cce565b9392505050565b60008060408385031215610d1f57600080fd5b610d2883610cce565b946020939093013593505050565b60005b83811015610d51578181015183820152602001610d39565b50506000910152565b60008151808452610d72816020860160208601610d36565b601f01601f19169290920160200192915050565b608081526000610d996080830187610d5a565b60ff861660208401528460408401528281036060840152610dba8185610d5a565b979650505050505050565b60208082526015908201527415dbdc9ad95c881b9bdd081c9959da5cdd195c9959605a1b604082015260600190565b60008351610e06818460208801610d36565b605f60f81b9083019081528351610e24816001840160208801610d36565b01600101949350505050565b60008251610e42818460208701610d36565b9190910192915050565b600181811c90821680610e6057607f821691505b602082108103610e8057634e487b7160e01b600052602260045260246000fd5b50919050565b601f821115610ed057600081815260208120601f850160051c81016020861015610ead5750805b601f850160051c820191505b81811015610ecc57828155600101610eb9565b5050505b505050565b815167ffffffffffffffff811115610eef57610eef610bad565b610f0381610efd8454610e4c565b84610e86565b602080601f831160018114610f385760008415610f205750858301515b600019600386901b1c1916600185901b178555610ecc565b600085815260208120601f198616915b82811015610f6757888601518255948401946001909101908401610f48565b5085821015610f855787850151600019600388901b60f8161c191681555b5050505050600190811b01905550565b634e487b7160e01b600052601160045260246000fd5b80820180821115610fbe57610fbe610f95565b92915050565b600060018201610fd657610fd6610f95565b5060010190565b606081526000610ff06060830186610d5a565b60ff85166020840152828103604084015261100b8185610d5a565b9695505050505050565b634e487b7160e01b600052603260045260246000fd5b8082028115828204841417610fbe57610fbe610f95565b634e487b7160e01b600052601260045260246000fd5b60008261106757611067611042565b500490565b81810381811115610fbe57610fbe610f95565b60008261108e5761108e611042565b50069056fea26469706673582212205646032ab032012c4d353dd0cf3321261a64fdf487925d5972b100ac5a1bd65f64736f6c63430008130033",
  "linkReferences": {},
  "deployedLinkReferences": {}
}